:020000020000FC
:040000000C94BC019F
:04003C000C943801E7
:04005C000C9460019F
:100074000C943C004F935F936F938F930F93409135
:100084007800509179006FEF83E04617580739F0F4
:1000940060E080E04617580739F00C94320101E023
:1000A40000931B020C94320100911B02013029F0D1
:1000B40001E000931C020C94320100911C020130F7
:1000C40011F00C945A006F9360911D026A9560932D
:1000D4001D026F9100911D020F9300E000931C021A
:1000E40000931B020F91003011F00C94DD0000E529
:1000F40095D49DD474E04F9340E04093B1004F9168
:100104004F9340E044BD42E045BD41E040936E0062
:100114004F910F9305E000931D020F9101E077D4F6
:1001240086D404E47BD483D405E678D480D40CE666
:1001340075D47DD409E672D47AD406E76FD477D423
:1001440005E66CD474D402E769D471D409E666D4A4
:100154006ED40EE663D46BD407E660D468D400E2B0
:100164005DD465D409E65AD462D404E757D45FD485
:1001740005E654D45CD40DE651D459D474E04F93BD
:100184005F936F93CC27DD27C8E0D2E061E0509104
:100194001A02651719F06395C395FBCF48814A95F8
:1001A40048836F915F914F910F9305E000931D0277
:1001B4000F910C9432014F9340E045BD4F91F89458
:1001C4004F935F936F9351E04081CC27DD27C1E1CA
:1001D400D2E060911D02541719F0C3955395FBCFDB
:1001E4004881653019F4642F60931D0250E3650F54
:1001F40001E00DD41CD409E411D419D40EE60ED4B4
:1002040016D403E70BD413D405E608D410D402E7BC
:1002140005D40DD404E702D40AD400E2FFD307D4F2
:1002240003E6FCD304D40FE6F9D301D409E6F6D3EC
:10023400FED30EE6F3D3FBD303E7F0D3F8D300ECFD
:10024400E6D3F5D3062FEAD3F2D36F915F914F91A2
:10025400CC27DD274F9342E04093B1004F9178942F
:100264000F918F916F915F914F9108954FB74F9375
:10027400DF93CF939F938F9380910602909107020F
:100284000196873249E0940771F4F4DEC6E0D2E0C7
:100294004427499348838091040290910502019672
:1002A4009093050204C080930602909307028F91F5
:1002B4009F91CF91DF914F914FBF18954FB74F93B7
:1002C400DF93CF939F938F938091020290910302C7
:1002D40001968C384BE5940711F00C94B1014F93BF
:1002E40040E045BD4F914F9340E04093B1004F91A2
:1002F4000F9305E000931D020F9101E088D397D37B
:1003040003E58CD394D305E689D391D30CE686D345
:100314008ED305E683D38BD303E680D388D304E757
:100324007DD385D300E27AD382D309E677D37FD312
:1003340004E774D37CD305E671D379D30DE66ED389
:1003440076D371E0C2E0D2E0442749934883809198
:1003540000029091010201969093010204C08093DF
:100364000202909303028F919F91CF91DF914F915D
:100374004FBF18954FEF4DBF41E24EBF40EF409342
:100384000A014FEF47B948B90FEF0DBF01E20EBFA5
:100394000FEF00BB01B9002701BB02B908E337D353
:1003A40046D388D308E333D342D37BD308E32FD394
:1003B4003ED308E32CD33BD308E029D338D301E060
:1003C40026D335D306E023D332D30CE020D32FD366
:1003D40002E324D32CD301E321D329D302E31ED394
:1003E40026D301E31BD323D300E218D320D301E3A4
:1003F40015D31DD307E312D31AD303E70FD317D3AF
:1004040001E30CD314D300E209D311D300E206D3E1
:100414000ED300E203D30BD30BE400D308D306E3DB
:10042400FDD205D300ECF3D202D306E5F7D2FFD216
:1004340005E6F4D2FCD20EE6F1D2F9D204E6EED20D
:10044400F6D209E6EBD2F3D20EE6E8D2F0D207E612
:10045400E5D2EDD200E2E2D2EAD20DE4DFD2E7D275
:1004640001E6DCD2E4D203E6D9D2E1D208E6D6D260
:10047400DED209E6D3D2DBD20EE6D0D2D8D205E65C
:10048400CDD2D5D2C2E0D2E0442749934883C0E01C
:10049400D2E044274993488340E044BD42E045BD4F
:1004A40041E040936E0040E04093B00040E0409350
:1004B400B10041E040937000789470E001E0009353
:1004C4000802002702E000930902002703E00093DA
:1004D4000A02002704E000930B02002705E00093C2
:1004E4000C02002706E000930D02002707E00093AA
:1004F4000E02002708E000930F02002709E0009392
:100504001002002701E000931102002702E000938B
:100514001202002701E000931302002702E0009377
:100524001402002701E000931502002702E0009363
:100534001602002701E000931702002702E000934F
:100544001802002701E000931902002705E0009338
:100554001D02002740EC40937C0048E040937B0060
:1005640045EE40937A0000C04427703011F40C9497
:10057400B503713011F40C94B503733011F40C9479
:100584001503723011F40C946E03743011F40C944E
:10059400CD020C94B6024F9340E04093B1004F91CA
:1005A4004F9340E044BD42E045BD41E040936E00BE
:1005B4004F910F9305E000931D020F9101E027D2A4
:1005C40036D204E42BD233D205E628D230D20CE65C
:1005D40025D22DD209E622D22AD206E71FD227D26B
:1005E40005E61CD224D202E719D221D209E616D29A
:1005F4001ED20EE613D21BD207E610D218D200E2A6
:100604000DD215D209E60AD212D204E707D20FD2CC
:1006140005E604D20CD20DE601D209D274E050D220
:100624004FD20C94B5034F9340E045BD4F91F894DD
:100634004F935F936F9351E04081CC27DD27C1E155
:10064400D2E060911D02541719F0C3955395FBCF66
:100654004881653019F4642F60931D0250E3650FDF
:1006640001E0D5D1E4D109E4D9D1E1D10EE6D6D166
:10067400DED103E7D3D1DBD105E6D0D1D8D102E76F
:10068400CDD1D5D104E7CAD1D2D100E2C7D1CFD1DF
:1006940003E6C4D1CCD10FE6C1D1C9D109E6BED19C
:1006A400C6D10EE6BBD1C3D103E7B8D1C0D100ECAB
:1006B400AED1BDD1062FB2D1BAD16F915F914F9116
:1006C400CC27DD274F9342E04093B1004F917894BB
:1006D400F7D1F6D10C94B5034F9340E044BD42E00A
:1006E40045BD41E040936E004F914F9340E04093ED
:1006F400B1004F916F935F9360911A0250E3650FBD
:1007040001E085D194D10FE489D191D105E786D157
:100714008ED104E783D18BD100E280D188D10FE65A
:100724007DD185D106E67AD182D100E277D17FD11D
:1007340003E574D17CD104E771D179D10FE66ED190
:1007440076D103E66BD173D10BE668D170D100EC9E
:100754005ED16DD1062F62D16AD15F916F91B0D114
:10076400AFD10C94B5033FEE11271430E1F330936D
:100774000B014FEF4A95F1F7409109014F704F304B
:1007840059F021E00027043039F0542F522341F06E
:100794000395220F0C94C503330F13950C94B703E0
:1007A400133011F40C941B04033011F40C94500412
:1007B400402F440F400F410F4F5F41304F93703033
:1007C40011F00C94EF044F9340E045BD4F914F93CB
:1007D40040E04093B1004F910F9305E000931D0258
:1007E4000F9101E014D123D103E518D120D105E6FE
:1007F40015D11DD10CE612D11AD105E60FD117D1AE
:1008040003E60CD114D104E709D111D100E206D1D9
:100814000ED109E603D10BD104E700D108D105E6D6
:10082400FDD005D10DE6FAD002D171E049D10C9486
:10083400B6024F9340E045BD4F914F9340E0409343
:10084400B1004F910F9305E000931D020F9101E059
:10085400DED0EDD003E5E2D0EAD005E6DFD0E7D084
:100864000CE6DCD0E4D005E6D9D0E1D003E6D6D05E
:10087400DED004E7D3D0DBD000E2D0D0D8D009E674
:10088400CDD0D5D004E7CAD0D2D005E6C7D0CFD0DA
:100894000DE6C4D0CCD071E00C94B6024F9340E086
:1008A40045BD4F914F9340E04093B1004F910F935A
:1008B40005E000931D020F9101E0A9D0B8D003E533
:1008C400ADD0B5D005E6AAD0B2D00CE6A7D0AFD053
:1008D40005E6A4D0ACD003E6A1D0A9D004E79ED00D
:1008E400A6D000E29BD0A3D009E698D0A0D004E71C
:1008F40095D09DD005E692D09AD00DE68FD097D0B2
:1009040071E00C94B6024F9340E045BD4F914F9374
:1009140040E04093B1004F910F9305E000931D0216
:100924000F9101E074D083D003E578D080D005E640
:1009340075D07DD00CE672D07AD005E66FD077D032
:1009440003E66CD074D004E769D071D000E266D0BD
:100954006ED009E663D06BD004E760D068D005E6BA
:100964005DD065D00DE65AD062D071E00C94B60229
:100974004F9340E045BD4F914F9340E04093B10009
:100984004F910F9305E000931D020F9101E03FD0BA
:100994004ED003E543D04BD005E640D048D00CE61A
:1009A4003DD045D005E63AD042D003E637D03FD01B
:1009B40004E734D03CD000E231D039D009E62ED05F
:1009C40036D004E72BD033D005E628D030D00DE65E
:1009D40025D02DD071E00C94EF04713011F00C94FB
:1009E400B60240931A02EE27FF27E8E0F2E061E046
:1009F400641719F06395E395FBCF4081403019F0FB
:100A040073E00C94B60272E00C94B602FFCF01BB03
:100A140048D0169A46D0169844D0089501BB179A28
:100A240040D0169A3ED016983CD0179808950F934C
:100A3400002700BB01BB159A34D0169A32D00FB1EF
:100A4400169807FDF9CF15980FEF00BB0F91089585
:100A54004F9348E14DB94FEF40939800442740939A
:100A640099004FEF40939A00442740939B005FEF17
:100A740041E04093910043EA409390004F910895E0
:100A84005A955093980050939A0014D05030C1F75F
:100A940053955093980050939A000CD05F3FC1F740
:100AA400EFCF8F939F939FE08CE90197F1F79F918C
:100AB4008F910895F6DFF5DFF4DFF3DFF2DF0895B9
:0C0AC400F9DFF8DFF7DFF6DFF5DF08955B
:00000001FF
